{
  "_format": "hh-sol-artifact-1",
  "contractName": "EvaluatorRegistry",
  "sourceName": "contracts/EvaluatorRegistry.sol",
  "abi": [
    {
      "inputs": [],
      "stateMutability": "nonpayable",
      "type": "constructor"
    },
    {
      "anonymous": false,
      "inputs": [
        {
          "indexed": true,
          "internalType": "address",
          "name": "evaluatorAddress",
          "type": "address"
        }
      ],
      "name": "EvaluatorDeregistered",
      "type": "event"
    },
    {
      "anonymous": false,
      "inputs": [
        {
          "indexed": true,
          "internalType": "address",
          "name": "evaluatorAddress",
          "type": "address"
        },
        {
          "indexed": false,
          "internalType": "string",
          "name": "name",
          "type": "string"
        },
        {
          "indexed": false,
          "internalType": "string",
          "name": "email",
          "type": "string"
        }
      ],
      "name": "EvaluatorRegistered",
      "type": "event"
    },
    {
      "inputs": [],
      "name": "deregisterEvaluator",
      "outputs": [],
      "stateMutability": "nonpayable",
      "type": "function"
    },
    {
      "inputs": [
        {
          "internalType": "address",
          "name": "",
          "type": "address"
        }
      ],
      "name": "evaluators",
      "outputs": [
        {
          "internalType": "address",
          "name": "evaluatorAddress",
          "type": "address"
        },
        {
          "internalType": "string",
          "name": "name",
          "type": "string"
        },
        {
          "internalType": "string",
          "name": "email",
          "type": "string"
        },
        {
          "internalType": "bool",
          "name": "isRegistered",
          "type": "bool"
        }
      ],
      "stateMutability": "view",
      "type": "function"
    },
    {
      "inputs": [
        {
          "internalType": "address",
          "name": "_evaluatorAddress",
          "type": "address"
        }
      ],
      "name": "getEvaluator",
      "outputs": [
        {
          "components": [
            {
              "internalType": "address",
              "name": "evaluatorAddress",
              "type": "address"
            },
            {
              "internalType": "string",
              "name": "name",
              "type": "string"
            },
            {
              "internalType": "string",
              "name": "email",
              "type": "string"
            },
            {
              "internalType": "bool",
              "name": "isRegistered",
              "type": "bool"
            }
          ],
          "internalType": "struct EvaluatorRegistry.Evaluator",
          "name": "",
          "type": "tuple"
        }
      ],
      "stateMutability": "view",
      "type": "function"
    },
    {
      "inputs": [
        {
          "internalType": "address",
          "name": "_evaluatorAddress",
          "type": "address"
        }
      ],
      "name": "isEvaluatorRegistered",
      "outputs": [
        {
          "internalType": "bool",
          "name": "",
          "type": "bool"
        }
      ],
      "stateMutability": "view",
      "type": "function"
    },
    {
      "inputs": [],
      "name": "owner",
      "outputs": [
        {
          "internalType": "address",
          "name": "",
          "type": "address"
        }
      ],
      "stateMutability": "view",
      "type": "function"
    },
    {
      "inputs": [
        {
          "internalType": "string",
          "name": "_name",
          "type": "string"
        },
        {
          "internalType": "string",
          "name": "_email",
          "type": "string"
        }
      ],
      "name": "registerEvaluator",
      "outputs": [],
      "stateMutability": "nonpayable",
      "type": "function"
    }
  ],
  "bytecode": "0x608060405234801561001057600080fd5b50336000806101000a81548173ffffffffffffffffffffffffffffffffffffffff021916908373ffffffffffffffffffffffffffffffffffffffff1602179055506111c7806100606000396000f3fe608060405234801561001057600080fd5b50600436106100625760003560e01c80632966aa4514610067578063402aa7fd14610083578063894d8c571461008d5780638da5cb5b146100bd578063e50d582c146100db578063f02926c71461010e575b600080fd5b610081600480360381019061007c9190610a71565b61013e565b005b61008b610331565b005b6100a760048036038101906100a29190610b47565b6104a2565b6040516100b49190610b8f565b60405180910390f35b6100c56104fb565b6040516100d29190610bb9565b60405180910390f35b6100f560048036038101906100f09190610b47565b61051f565b6040516101059493929190610c53565b60405180910390f35b61012860048036038101906101239190610b47565b61068c565b6040516101359190610d78565b60405180910390f35b600160003373ffffffffffffffffffffffffffffffffffffffff1673ffffffffffffffffffffffffffffffffffffffff16815260200190815260200160002060030160009054906101000a900460ff16156101ce576040517f08c379a00000000000000000000000000000000000000000000000000000000081526004016101c590610de6565b60405180910390fd5b60405180608001604052803373ffffffffffffffffffffffffffffffffffffffff16815260200183815260200182815260200160011515815250600160003373ffffffffffffffffffffffffffffffffffffffff1673ffffffffffffffffffffffffffffffffffffffff16815260200190815260200160002060008201518160000160006101000a81548173ffffffffffffffffffffffffffffffffffffffff021916908373ffffffffffffffffffffffffffffffffffffffff16021790555060208201518160010190816102a3919061101c565b5060408201518160020190816102b9919061101c565b5060608201518160030160006101000a81548160ff0219169083151502179055509050503373ffffffffffffffffffffffffffffffffffffffff167fd6bc20f12db5bf7aa393c159c3bccb6d9b544cca3e9f3ab6ebea79d099cada1e83836040516103259291906110ee565b60405180910390a25050565b600160003373ffffffffffffffffffffffffffffffffffffffff1673ffffffffffffffffffffffffffffffffffffffff16815260200190815260200160002060030160009054906101000a900460ff166103c0576040517f08c379a00000000000000000000000000000000000000000000000000000000081526004016103b790611171565b60405180910390fd5b600160003373ffffffffffffffffffffffffffffffffffffffff1673ffffffffffffffffffffffffffffffffffffffff168152602001908152602001600020600080820160006101000a81549073ffffffffffffffffffffffffffffffffffffffff0219169055600182016000610437919061087a565b600282016000610447919061087a565b6003820160006101000a81549060ff021916905550503373ffffffffffffffffffffffffffffffffffffffff167f23f53e60b2cf53054e254c6d4c176b9c482afc84f7d79d6bb99df6dcce23eac260405160405180910390a2565b6000600160008373ffffffffffffffffffffffffffffffffffffffff1673ffffffffffffffffffffffffffffffffffffffff16815260200190815260200160002060030160009054906101000a900460ff169050919050565b60008054906101000a900473ffffffffffffffffffffffffffffffffffffffff1681565b60016020528060005260406000206000915090508060000160009054906101000a900473ffffffffffffffffffffffffffffffffffffffff169080600101805461056890610e35565b80601f016020809104026020016040519081016040528092919081815260200182805461059490610e35565b80156105e15780601f106105b6576101008083540402835291602001916105e1565b820191906000526020600020905b8154815290600101906020018083116105c457829003601f168201915b5050505050908060020180546105f690610e35565b80601f016020809104026020016040519081016040528092919081815260200182805461062290610e35565b801561066f5780601f106106445761010080835404028352916020019161066f565b820191906000526020600020905b81548152906001019060200180831161065257829003601f168201915b5050505050908060030160009054906101000a900460ff16905084565b6106946108ba565b600160008373ffffffffffffffffffffffffffffffffffffffff1673ffffffffffffffffffffffffffffffffffffffff1681526020019081526020016000206040518060800160405290816000820160009054906101000a900473ffffffffffffffffffffffffffffffffffffffff1673ffffffffffffffffffffffffffffffffffffffff1673ffffffffffffffffffffffffffffffffffffffff16815260200160018201805461074490610e35565b80601f016020809104026020016040519081016040528092919081815260200182805461077090610e35565b80156107bd5780601f10610792576101008083540402835291602001916107bd565b820191906000526020600020905b8154815290600101906020018083116107a057829003601f168201915b505050505081526020016002820180546107d690610e35565b80601f016020809104026020016040519081016040528092919081815260200182805461080290610e35565b801561084f5780601f106108245761010080835404028352916020019161084f565b820191906000526020600020905b81548152906001019060200180831161083257829003601f168201915b505050505081526020016003820160009054906101000a900460ff1615151515815250509050919050565b50805461088690610e35565b6000825580601f1061089857506108b7565b601f0160209004906000526020600020908101906108b691906108fa565b5b50565b6040518060800160405280600073ffffffffffffffffffffffffffffffffffffffff16815260200160608152602001606081526020016000151581525090565b5b808211156109135760008160009055506001016108fb565b5090565b6000604051905090565b600080fd5b600080fd5b600080fd5b600080fd5b6000601f19601f8301169050919050565b7f4e487b7100000000000000000000000000000000000000000000000000000000600052604160045260246000fd5b61097e82610935565b810181811067ffffffffffffffff8211171561099d5761099c610946565b5b80604052505050565b60006109b0610917565b90506109bc8282610975565b919050565b600067ffffffffffffffff8211156109dc576109db610946565b5b6109e582610935565b9050602081019050919050565b82818337600083830152505050565b6000610a14610a0f846109c1565b6109a6565b905082815260208101848484011115610a3057610a2f610930565b5b610a3b8482856109f2565b509392505050565b600082601f830112610a5857610a5761092b565b5b8135610a68848260208601610a01565b91505092915050565b60008060408385031215610a8857610a87610921565b5b600083013567ffffffffffffffff811115610aa657610aa5610926565b5b610ab285828601610a43565b925050602083013567ffffffffffffffff811115610ad357610ad2610926565b5b610adf85828601610a43565b9150509250929050565b600073ffffffffffffffffffffffffffffffffffffffff82169050919050565b6000610b1482610ae9565b9050919050565b610b2481610b09565b8114610b2f57600080fd5b50565b600081359050610b4181610b1b565b92915050565b600060208284031215610b5d57610b5c610921565b5b6000610b6b84828501610b32565b91505092915050565b60008115159050919050565b610b8981610b74565b82525050565b6000602082019050610ba46000830184610b80565b92915050565b610bb381610b09565b82525050565b6000602082019050610bce6000830184610baa565b92915050565b600081519050919050565b600082825260208201905092915050565b60005b83811015610c0e578082015181840152602081019050610bf3565b60008484015250505050565b6000610c2582610bd4565b610c2f8185610bdf565b9350610c3f818560208601610bf0565b610c4881610935565b840191505092915050565b6000608082019050610c686000830187610baa565b8181036020830152610c7a8186610c1a565b90508181036040830152610c8e8185610c1a565b9050610c9d6060830184610b80565b95945050505050565b610caf81610b09565b82525050565b600082825260208201905092915050565b6000610cd182610bd4565b610cdb8185610cb5565b9350610ceb818560208601610bf0565b610cf481610935565b840191505092915050565b610d0881610b74565b82525050565b6000608083016000830151610d266000860182610ca6565b5060208301518482036020860152610d3e8282610cc6565b91505060408301518482036040860152610d588282610cc6565b9150506060830151610d6d6060860182610cff565b508091505092915050565b60006020820190508181036000830152610d928184610d0e565b905092915050565b7f4576616c7561746f7220616c7265616479207265676973746572656421000000600082015250565b6000610dd0601d83610bdf565b9150610ddb82610d9a565b602082019050919050565b60006020820190508181036000830152610dff81610dc3565b9050919050565b7f4e487b7100000000000000000000000000000000000000000000000000000000600052602260045260246000fd5b60006002820490506001821680610e4d57607f821691505b602082108103610e6057610e5f610e06565b5b50919050565b60008190508160005260206000209050919050565b60006020601f8301049050919050565b600082821b905092915050565b600060088302610ec87fffffffffffffffffffffffffffffffffffffffffffffffffffffffffffffffff82610e8b565b610ed28683610e8b565b95508019841693508086168417925050509392505050565b6000819050919050565b6000819050919050565b6000610f19610f14610f0f84610eea565b610ef4565b610eea565b9050919050565b6000819050919050565b610f3383610efe565b610f47610f3f82610f20565b848454610e98565b825550505050565b600090565b610f5c610f4f565b610f67818484610f2a565b505050565b5b81811015610f8b57610f80600082610f54565b600181019050610f6d565b5050565b601f821115610fd057610fa181610e66565b610faa84610e7b565b81016020851015610fb9578190505b610fcd610fc585610e7b565b830182610f6c565b50505b505050565b600082821c905092915050565b6000610ff360001984600802610fd5565b1980831691505092915050565b600061100c8383610fe2565b9150826002028217905092915050565b61102582610bd4565b67ffffffffffffffff81111561103e5761103d610946565b5b6110488254610e35565b611053828285610f8f565b600060209050601f8311600181146110865760008415611074578287015190505b61107e8582611000565b8655506110e6565b601f19841661109486610e66565b60005b828110156110bc57848901518255600182019150602085019450602081019050611097565b868310156110d957848901516110d5601f891682610fe2565b8355505b6001600288020188555050505b505050505050565b600060408201905081810360008301526111088185610c1a565b9050818103602083015261111c8184610c1a565b90509392505050565b7f4576616c7561746f72206e6f7420726567697374657265642100000000000000600082015250565b600061115b601983610bdf565b915061116682611125565b602082019050919050565b6000602082019050818103600083015261118a8161114e565b905091905056fea26469706673582212206e88a49133ab82cb8e66b96eb1bb1d8dd0ca6d1f37137a61969e0f32ed08330264736f6c63430008180033",
  "linkReferences": {},
  "deployedLinkReferences": {}
}