{
  "_format": "hh-sol-artifact-1",
  "contractName": "RwaEvaluation",
  "sourceName": "contracts/RwaEvaluation.sol",
  "abi": [
    {
      "inputs": [
        {
          "internalType": "address",
          "name": "_evaluatorRegistryAddress",
          "type": "address"
        }
      ],
      "stateMutability": "nonpayable",
      "type": "constructor"
    },
    {
      "anonymous": false,
      "inputs": [
        {
          "indexed": true,
          "internalType": "address",
          "name": "evaluatorAddress",
          "type": "address"
        },
        {
          "indexed": false,
          "internalType": "string",
          "name": "rwaTokenAddress",
          "type": "string"
        },
        {
          "indexed": false,
          "internalType": "uint256",
          "name": "timestamp",
          "type": "uint256"
        }
      ],
      "name": "EvaluationSubmitted",
      "type": "event"
    },
    {
      "inputs": [
        {
          "internalType": "uint256",
          "name": "",
          "type": "uint256"
        }
      ],
      "name": "evaluations",
      "outputs": [
        {
          "internalType": "address",
          "name": "evaluatorAddress",
          "type": "address"
        },
        {
          "internalType": "string",
          "name": "rwaTokenAddress",
          "type": "string"
        },
        {
          "internalType": "uint256",
          "name": "totalValue",
          "type": "uint256"
        },
        {
          "internalType": "bool",
          "name": "paymentInfoAvailable",
          "type": "bool"
        },
        {
          "internalType": "string",
          "name": "officialWebsite",
          "type": "string"
        },
        {
          "internalType": "uint8",
          "name": "trustScore",
          "type": "uint8"
        },
        {
          "internalType": "string",
          "name": "comments",
          "type": "string"
        },
        {
          "internalType": "uint256",
          "name": "timestamp",
          "type": "uint256"
        }
      ],
      "stateMutability": "view",
      "type": "function"
    },
    {
      "inputs": [],
      "name": "evaluatorRegistry",
      "outputs": [
        {
          "internalType": "contract EvaluatorRegistry",
          "name": "",
          "type": "address"
        }
      ],
      "stateMutability": "view",
      "type": "function"
    },
    {
      "inputs": [
        {
          "internalType": "uint256",
          "name": "index",
          "type": "uint256"
        }
      ],
      "name": "getEvaluation",
      "outputs": [
        {
          "internalType": "address",
          "name": "evaluatorAddress",
          "type": "address"
        },
        {
          "internalType": "string",
          "name": "rwaTokenAddress",
          "type": "string"
        },
        {
          "internalType": "uint256",
          "name": "totalValue",
          "type": "uint256"
        },
        {
          "internalType": "bool",
          "name": "paymentInfoAvailable",
          "type": "bool"
        },
        {
          "internalType": "string",
          "name": "officialWebsite",
          "type": "string"
        },
        {
          "internalType": "uint8",
          "name": "trustScore",
          "type": "uint8"
        },
        {
          "internalType": "string",
          "name": "comments",
          "type": "string"
        },
        {
          "internalType": "uint256",
          "name": "timestamp",
          "type": "uint256"
        }
      ],
      "stateMutability": "view",
      "type": "function"
    },
    {
      "inputs": [],
      "name": "getEvaluationsCount",
      "outputs": [
        {
          "internalType": "uint256",
          "name": "",
          "type": "uint256"
        }
      ],
      "stateMutability": "view",
      "type": "function"
    },
    {
      "inputs": [],
      "name": "owner",
      "outputs": [
        {
          "internalType": "address",
          "name": "",
          "type": "address"
        }
      ],
      "stateMutability": "view",
      "type": "function"
    },
    {
      "inputs": [
        {
          "internalType": "string",
          "name": "_rwaTokenAddress",
          "type": "string"
        },
        {
          "internalType": "uint256",
          "name": "_totalValue",
          "type": "uint256"
        },
        {
          "internalType": "bool",
          "name": "_paymentInfoAvailable",
          "type": "bool"
        },
        {
          "internalType": "string",
          "name": "_officialWebsite",
          "type": "string"
        },
        {
          "internalType": "uint8",
          "name": "_trustScore",
          "type": "uint8"
        },
        {
          "internalType": "string",
          "name": "_comments",
          "type": "string"
        }
      ],
      "name": "submitEvaluation",
      "outputs": [],
      "stateMutability": "nonpayable",
      "type": "function"
    }
  ],
  "bytecode": "0x60806040523480156200001157600080fd5b50604051620014e3380380620014e3833981810160405281019062000037919062000129565b806000806101000a81548173ffffffffffffffffffffffffffffffffffffffff021916908373ffffffffffffffffffffffffffffffffffffffff16021790555033600160006101000a81548173ffffffffffffffffffffffffffffffffffffffff021916908373ffffffffffffffffffffffffffffffffffffffff160217905550506200015b565b600080fd5b600073ffffffffffffffffffffffffffffffffffffffff82169050919050565b6000620000f182620000c4565b9050919050565b6200010381620000e4565b81146200010f57600080fd5b50565b6000815190506200012381620000f8565b92915050565b600060208284031215620001425762000141620000bf565b5b6000620001528482850162000112565b91505092915050565b611378806200016b6000396000f3fe608060405234801561001057600080fd5b50600436106100625760003560e01c806333c63b17146100675780638da5cb5b1461009e578063af507cf1146100bc578063bd2b0598146100d8578063c23d4c85146100f6578063db56c3961461012d575b600080fd5b610081600480360381019061007c91906109da565b61014b565b604051610095989796959493929190610b1e565b60405180910390f35b6100a6610375565b6040516100b39190610bb1565b60405180910390f35b6100d660048036038101906100d19190610d59565b61039b565b005b6100e0610683565b6040516100ed9190610e99565b60405180910390f35b610110600480360381019061010b91906109da565b6106a7565b604051610124989796959493929190610b1e565b60405180910390f35b610135610983565b6040516101429190610eb4565b60405180910390f35b6002818154811061015b57600080fd5b90600052602060002090600802016000915090508060000160009054906101000a900473ffffffffffffffffffffffffffffffffffffffff16908060010180546101a490610efe565b80601f01602080910402602001604051908101604052809291908181526020018280546101d090610efe565b801561021d5780601f106101f25761010080835404028352916020019161021d565b820191906000526020600020905b81548152906001019060200180831161020057829003601f168201915b5050505050908060020154908060030160009054906101000a900460ff169080600401805461024b90610efe565b80601f016020809104026020016040519081016040528092919081815260200182805461027790610efe565b80156102c45780601f10610299576101008083540402835291602001916102c4565b820191906000526020600020905b8154815290600101906020018083116102a757829003601f168201915b5050505050908060050160009054906101000a900460ff16908060060180546102ec90610efe565b80601f016020809104026020016040519081016040528092919081815260200182805461031890610efe565b80156103655780601f1061033a57610100808354040283529160200191610365565b820191906000526020600020905b81548152906001019060200180831161034857829003601f168201915b5050505050908060070154905088565b600160009054906101000a900473ffffffffffffffffffffffffffffffffffffffff1681565b60008054906101000a900473ffffffffffffffffffffffffffffffffffffffff1673ffffffffffffffffffffffffffffffffffffffff1663894d8c57336040518263ffffffff1660e01b81526004016103f49190610bb1565b602060405180830381865afa158015610411573d6000803e3d6000fd5b505050506040513d601f19601f820116820180604052508101906104359190610f44565b610474576040517f08c379a000000000000000000000000000000000000000000000000000000000815260040161046b90610fbd565b60405180910390fd5b60018260ff161015801561048c5750600a8260ff1611155b6104cb576040517f08c379a00000000000000000000000000000000000000000000000000000000081526004016104c29061104f565b60405180910390fd5b60026040518061010001604052803373ffffffffffffffffffffffffffffffffffffffff16815260200188815260200187815260200186151581526020018581526020018460ff16815260200183815260200142815250908060018154018082558091505060019003906000526020600020906008020160009091909190915060008201518160000160006101000a81548173ffffffffffffffffffffffffffffffffffffffff021916908373ffffffffffffffffffffffffffffffffffffffff16021790555060208201518160010190816105a79190611211565b506040820151816002015560608201518160030160006101000a81548160ff02191690831515021790555060808201518160040190816105e79190611211565b5060a08201518160050160006101000a81548160ff021916908360ff16021790555060c082015181600601908161061e9190611211565b5060e0820151816007015550503373ffffffffffffffffffffffffffffffffffffffff167f639e37a7e5a7c87880b0d752db65500840f88a8e4bc9d771db7cbede000b5f9187426040516106739291906112e3565b60405180910390a2505050505050565b60008054906101000a900473ffffffffffffffffffffffffffffffffffffffff1681565b6000606060008060606000606060008060028a815481106106cb576106ca611313565b5b9060005260206000209060080201604051806101000160405290816000820160009054906101000a900473ffffffffffffffffffffffffffffffffffffffff1673ffffffffffffffffffffffffffffffffffffffff1673ffffffffffffffffffffffffffffffffffffffff16815260200160018201805461074b90610efe565b80601f016020809104026020016040519081016040528092919081815260200182805461077790610efe565b80156107c45780601f10610799576101008083540402835291602001916107c4565b820191906000526020600020905b8154815290600101906020018083116107a757829003601f168201915b50505050508152602001600282015481526020016003820160009054906101000a900460ff1615151515815260200160048201805461080290610efe565b80601f016020809104026020016040519081016040528092919081815260200182805461082e90610efe565b801561087b5780601f106108505761010080835404028352916020019161087b565b820191906000526020600020905b81548152906001019060200180831161085e57829003601f168201915b505050505081526020016005820160009054906101000a900460ff1660ff1660ff1681526020016006820180546108b190610efe565b80601f01602080910402602001604051908101604052809291908181526020018280546108dd90610efe565b801561092a5780601f106108ff5761010080835404028352916020019161092a565b820191906000526020600020905b81548152906001019060200180831161090d57829003601f168201915b505050505081526020016007820154815250509050806000015181602001518260400151836060015184608001518560a001518660c001518760e001519850985098509850985098509850985050919395975091939597565b6000600280549050905090565b6000604051905090565b600080fd5b600080fd5b6000819050919050565b6109b7816109a4565b81146109c257600080fd5b50565b6000813590506109d4816109ae565b92915050565b6000602082840312156109f0576109ef61099a565b5b60006109fe848285016109c5565b91505092915050565b600073ffffffffffffffffffffffffffffffffffffffff82169050919050565b6000610a3282610a07565b9050919050565b610a4281610a27565b82525050565b600081519050919050565b600082825260208201905092915050565b60005b83811015610a82578082015181840152602081019050610a67565b60008484015250505050565b6000601f19601f8301169050919050565b6000610aaa82610a48565b610ab48185610a53565b9350610ac4818560208601610a64565b610acd81610a8e565b840191505092915050565b610ae1816109a4565b82525050565b60008115159050919050565b610afc81610ae7565b82525050565b600060ff82169050919050565b610b1881610b02565b82525050565b600061010082019050610b34600083018b610a39565b8181036020830152610b46818a610a9f565b9050610b556040830189610ad8565b610b626060830188610af3565b8181036080830152610b748187610a9f565b9050610b8360a0830186610b0f565b81810360c0830152610b958185610a9f565b9050610ba460e0830184610ad8565b9998505050505050505050565b6000602082019050610bc66000830184610a39565b92915050565b600080fd5b600080fd5b7f4e487b7100000000000000000000000000000000000000000000000000000000600052604160045260246000fd5b610c0e82610a8e565b810181811067ffffffffffffffff82111715610c2d57610c2c610bd6565b5b80604052505050565b6000610c40610990565b9050610c4c8282610c05565b919050565b600067ffffffffffffffff821115610c6c57610c6b610bd6565b5b610c7582610a8e565b9050602081019050919050565b82818337600083830152505050565b6000610ca4610c9f84610c51565b610c36565b905082815260208101848484011115610cc057610cbf610bd1565b5b610ccb848285610c82565b509392505050565b600082601f830112610ce857610ce7610bcc565b5b8135610cf8848260208601610c91565b91505092915050565b610d0a81610ae7565b8114610d1557600080fd5b50565b600081359050610d2781610d01565b92915050565b610d3681610b02565b8114610d4157600080fd5b50565b600081359050610d5381610d2d565b92915050565b60008060008060008060c08789031215610d7657610d7561099a565b5b600087013567ffffffffffffffff811115610d9457610d9361099f565b5b610da089828a01610cd3565b9650506020610db189828a016109c5565b9550506040610dc289828a01610d18565b945050606087013567ffffffffffffffff811115610de357610de261099f565b5b610def89828a01610cd3565b9350506080610e0089828a01610d44565b92505060a087013567ffffffffffffffff811115610e2157610e2061099f565b5b610e2d89828a01610cd3565b9150509295509295509295565b6000819050919050565b6000610e5f610e5a610e5584610a07565b610e3a565b610a07565b9050919050565b6000610e7182610e44565b9050919050565b6000610e8382610e66565b9050919050565b610e9381610e78565b82525050565b6000602082019050610eae6000830184610e8a565b92915050565b6000602082019050610ec96000830184610ad8565b92915050565b7f4e487b7100000000000000000000000000000000000000000000000000000000600052602260045260246000fd5b60006002820490506001821680610f1657607f821691505b602082108103610f2957610f28610ecf565b5b50919050565b600081519050610f3e81610d01565b92915050565b600060208284031215610f5a57610f5961099a565b5b6000610f6884828501610f2f565b91505092915050565b7f4576616c7561746f72206973206e6f7420726567697374657265642e00000000600082015250565b6000610fa7601c83610a53565b9150610fb282610f71565b602082019050919050565b60006020820190508181036000830152610fd681610f9a565b9050919050565b7f54727573742053636f7265206d757374206265206265747765656e203120616e60008201527f642031302e000000000000000000000000000000000000000000000000000000602082015250565b6000611039602583610a53565b915061104482610fdd565b604082019050919050565b600060208201905081810360008301526110688161102c565b9050919050565b60008190508160005260206000209050919050565b60006020601f8301049050919050565b600082821b905092915050565b6000600883026110d17fffffffffffffffffffffffffffffffffffffffffffffffffffffffffffffffff82611094565b6110db8683611094565b95508019841693508086168417925050509392505050565b600061110e611109611104846109a4565b610e3a565b6109a4565b9050919050565b6000819050919050565b611128836110f3565b61113c61113482611115565b8484546110a1565b825550505050565b600090565b611151611144565b61115c81848461111f565b505050565b5b8181101561118057611175600082611149565b600181019050611162565b5050565b601f8211156111c5576111968161106f565b61119f84611084565b810160208510156111ae578190505b6111c26111ba85611084565b830182611161565b50505b505050565b600082821c905092915050565b60006111e8600019846008026111ca565b1980831691505092915050565b600061120183836111d7565b9150826002028217905092915050565b61121a82610a48565b67ffffffffffffffff81111561123357611232610bd6565b5b61123d8254610efe565b611248828285611184565b600060209050601f83116001811461127b5760008415611269578287015190505b61127385826111f5565b8655506112db565b601f1984166112898661106f565b60005b828110156112b15784890151825560018201915060208501945060208101905061128c565b868310156112ce57848901516112ca601f8916826111d7565b8355505b6001600288020188555050505b505050505050565b600060408201905081810360008301526112fd8185610a9f565b905061130c6020830184610ad8565b9392505050565b7f4e487b7100000000000000000000000000000000000000000000000000000000600052603260045260246000fdfea264697066735822122074152277f216a817bddc5a9d212afd509aeb165ea54aea29a89e4a58f275305264736f6c63430008180033",
  "linkReferences": {},
  "deployedLinkReferences": {}
}